{
    "_format": "hh-sol-artifact-1",
    "contractName": "Transactions",
    "sourceName": "contracts/Transactions.sol",
    "abi": [
        {
            "anonymous": false,
            "inputs": [
                {
                    "indexed": false,
                    "internalType": "address",
                    "name": "from",
                    "type": "address"
                },
                {
                    "indexed": false,
                    "internalType": "address",
                    "name": "receiver",
                    "type": "address"
                },
                {
                    "indexed": false,
                    "internalType": "uint256",
                    "name": "amount",
                    "type": "uint256"
                }
            ],
            "name": "Transfer",
            "type": "event"
        },
        {
            "inputs": [
                {
                    "internalType": "address payable",
                    "name": "receiver",
                    "type": "address"
                },
                {
                    "internalType": "uint256",
                    "name": "amount",
                    "type": "uint256"
                }
            ],
            "name": "addToBlockChain",
            "outputs": [],
            "stateMutability": "nonpayable",
            "type": "function"
        }
    ],
    "bytecode": "0x608060405234801561001057600080fd5b5061036c806100206000396000f3fe608060405234801561001057600080fd5b506004361061002b5760003560e01c80634434bd1114610030575b600080fd5b61004a60048036038101906100459190610230565b61004c565b005b600060405180606001604052803373ffffffffffffffffffffffffffffffffffffffff1681526020018473ffffffffffffffffffffffffffffffffffffffff16815260200183815250908060018154018082558091505060019003906000526020600020906003020160009091909190915060008201518160000160006101000a81548173ffffffffffffffffffffffffffffffffffffffff021916908373ffffffffffffffffffffffffffffffffffffffff16021790555060208201518160010160006101000a81548173ffffffffffffffffffffffffffffffffffffffff021916908373ffffffffffffffffffffffffffffffffffffffff1602179055506040820151816002015550507fddf252ad1be2c89b69c2b068fc378daa952ba7f163c4a11628f55a4df523b3ef33838360405161018b939291906102ff565b60405180910390a15050565b600080fd5b600073ffffffffffffffffffffffffffffffffffffffff82169050919050565b60006101c78261019c565b9050919050565b6101d7816101bc565b81146101e257600080fd5b50565b6000813590506101f4816101ce565b92915050565b6000819050919050565b61020d816101fa565b811461021857600080fd5b50565b60008135905061022a81610204565b92915050565b6000806040838503121561024757610246610197565b5b6000610255858286016101e5565b92505060206102668582860161021b565b9150509250929050565b600061027b8261019c565b9050919050565b61028b81610270565b82525050565b6000819050919050565b60006102b66102b16102ac8461019c565b610291565b61019c565b9050919050565b60006102c88261029b565b9050919050565b60006102da826102bd565b9050919050565b6102ea816102cf565b82525050565b6102f9816101fa565b82525050565b60006060820190506103146000830186610282565b61032160208301856102e1565b61032e60408301846102f0565b94935050505056fea264697066735822122037c5aa101dc6b2d25f2fb245d5f8d03a6eef4322122c5f207c51970e1aa50a1f64736f6c63430008130033",
    "linkReferences": {},
    "deployedLinkReferences": {}
}